{
  "transactions": [
    {
      "hash": "0xe1a1f2179817001236e39d1013ed3b184212e6fcc7058e49a1112552a39eb5a1",
      "transactionType": "CALL",
      "contractName": null,
      "contractAddress": "0xc8116a8cdf4f163f540aea5cdb5f332c2efbfdf3",
      "function": "mintEquipment(string,string,string)",
      "arguments": [
        "Drill Machine",
        "Heavy-duty industrial drill",
        "ipfs://bafybeig37ioir76s7mg5oobetncojcm3c3hxasyd4rvid4jqhy4gkaheg4/?filename=0-PUG.json"
      ],
      "transaction": {
        "from": "0xeb5cf0cd7c54c5e43c7a67d1f9360497040410ab",
        "to": "0xc8116a8cdf4f163f540aea5cdb5f332c2efbfdf3",
        "gas": "0x5c2b5",
        "value": "0x0",
        "input": "0x780c0b45000000000000000000000000000000000000000000000000000000000000006000000000000000000000000000000000000000000000000000000000000000a000000000000000000000000000000000000000000000000000000000000000e0000000000000000000000000000000000000000000000000000000000000000d4472696c6c204d616368696e6500000000000000000000000000000000000000000000000000000000000000000000000000000000000000000000000000001b48656176792d6475747920696e647573747269616c206472696c6c00000000000000000000000000000000000000000000000000000000000000000000000057697066733a2f2f62616679626569673337696f6972373673376d67356f6f6265746e636f6a636d3363336878617379643472766964346a71687934676b61686567342f3f66696c656e616d653d302d5055472e6a736f6e000000000000000000",
        "nonce": "0x2",
        "chainId": "0xaa36a7"
      },
      "additionalContracts": [],
      "isFixedGasLimit": false
    }
  ],
  "receipts": [
    {
      "status": "0x1",
      "cumulativeGasUsed": "0x6dbdbc",
      "logs": [
        {
          "address": "0xc8116a8cdf4f163f540aea5cdb5f332c2efbfdf3",
          "topics": [
            "0xddf252ad1be2c89b69c2b068fc378daa952ba7f163c4a11628f55a4df523b3ef",
            "0x0000000000000000000000000000000000000000000000000000000000000000",
            "0x000000000000000000000000eb5cf0cd7c54c5e43c7a67d1f9360497040410ab",
            "0x0000000000000000000000000000000000000000000000000000000000000000"
          ],
          "data": "0x",
          "blockHash": "0xc94599dbb97efdf91a96b4408eb9b680d79ca6508d2b75b18b7b8bb55775ec96",
          "blockNumber": "0x7393a5",
          "transactionHash": "0xe1a1f2179817001236e39d1013ed3b184212e6fcc7058e49a1112552a39eb5a1",
          "transactionIndex": "0x42",
          "logIndex": "0x5c",
          "removed": false
        },
        {
          "address": "0xc8116a8cdf4f163f540aea5cdb5f332c2efbfdf3",
          "topics": [
            "0xbb13b811582573bc610d41ae1602a7d74db9abeab16fdcf343eb3c3c1df9b009",
            "0x0000000000000000000000000000000000000000000000000000000000000000"
          ],
          "data": "0x0000000000000000000000000000000000000000000000000000000000000040000000000000000000000000eb5cf0cd7c54c5e43c7a67d1f9360497040410ab000000000000000000000000000000000000000000000000000000000000000d4472696c6c204d616368696e6500000000000000000000000000000000000000",
          "blockHash": "0xc94599dbb97efdf91a96b4408eb9b680d79ca6508d2b75b18b7b8bb55775ec96",
          "blockNumber": "0x7393a5",
          "transactionHash": "0xe1a1f2179817001236e39d1013ed3b184212e6fcc7058e49a1112552a39eb5a1",
          "transactionIndex": "0x42",
          "logIndex": "0x5d",
          "removed": false
        }
      ],
      "logsBloom": "0x00000000000000000000000000000000000000000000000000000000000000000000000000000000000000000000000000000000000000000000000000000000000000000000000000000008000010000000000000000000000000000000000000100000020000000000000000000800000000000000040000004010000000000000000000000000000000000000000000000000000000000000000000800000000000000000000000000000000000000000000000000000000000000000000000000002000000000000000000000000000080000000000000000000000020000000000000000002000000000000008008000000000000000000000000000000",
      "type": "0x2",
      "transactionHash": "0xe1a1f2179817001236e39d1013ed3b184212e6fcc7058e49a1112552a39eb5a1",
      "transactionIndex": "0x42",
      "blockHash": "0xc94599dbb97efdf91a96b4408eb9b680d79ca6508d2b75b18b7b8bb55775ec96",
      "blockNumber": "0x7393a5",
      "gasUsed": "0x3f059",
      "effectiveGasPrice": "0x102210282",
      "from": "0xeb5cf0cd7c54c5e43c7a67d1f9360497040410ab",
      "to": "0xc8116a8cdf4f163f540aea5cdb5f332c2efbfdf3",
      "contractAddress": null
    }
  ],
  "libraries": [],
  "pending": [],
  "returns": {},
  "timestamp": 1737891135,
  "chain": 11155111,
  "commit": "5298342"
}